{
    "TransactionWithHighGasPrice2" : {
        "Byzantium" : {
            "hash" : "db9be75671ee7d2113c8273c4efb99605a818253cafac40e133481312ed874e3",
            "sender" : "844d39aae4c81c546888ac8ca8dc29ddd3c040c9"
        },
        "Constantinople" : {
            "hash" : "db9be75671ee7d2113c8273c4efb99605a818253cafac40e133481312ed874e3",
            "sender" : "844d39aae4c81c546888ac8ca8dc29ddd3c040c9"
        },
        "EIP150" : {
            "hash" : "db9be75671ee7d2113c8273c4efb99605a818253cafac40e133481312ed874e3",
            "sender" : "844d39aae4c81c546888ac8ca8dc29ddd3c040c9"
        },
        "EIP158" : {
            "hash" : "db9be75671ee7d2113c8273c4efb99605a818253cafac40e133481312ed874e3",
            "sender" : "844d39aae4c81c546888ac8ca8dc29ddd3c040c9"
        },
        "Frontier" : {
            "hash" : "db9be75671ee7d2113c8273c4efb99605a818253cafac40e133481312ed874e3",
            "sender" : "844d39aae4c81c546888ac8ca8dc29ddd3c040c9"
        },
        "Homestead" : {
            "hash" : "db9be75671ee7d2113c8273c4efb99605a818253cafac40e133481312ed874e3",
            "sender" : "844d39aae4c81c546888ac8ca8dc29ddd3c040c9"
        },
        "_info" : {
            "comment" : "",
            "filledwith" : "cpp-1.3.0+commit.fd35ad51.Darwin.appleclang",
            "lllcversion" : "Version: 0.4.20-develop.2017.12.20+commit.a4b886ad.Darwin.appleclang",
            "source" : "src/TransactionTestsFiller/ttGasPrice/TransactionWithHighGasPrice2Filler.json",
            "sourceHash" : "276c74d3f399c6cccf3b9d2071bfeb43755bff53f298fb00e614fac3ba28d980"
        },
        "rlp" : "0xf865808698852840a46f82520894095e7baea6a6c7c4c2dfeb977efac326af552d8780801ba048b55bfa915ac795c431978d8a6a992b628d557da5ff759b307d495a36649353a01fffd310ac743f371de3b9f7f9cb56c0b28ad43601b4ab949f53faa07bd2c804",
        "transaction" : {
            "data" : "",
            "gasLimit" : "0x5208",
            "gasPrice" : "0x98852840a46f",
            "nonce" : "0x00",
            "r" : "0x48b55bfa915ac795c431978d8a6a992b628d557da5ff759b307d495a36649353",
            "s" : "0x1fffd310ac743f371de3b9f7f9cb56c0b28ad43601b4ab949f53faa07bd2c804",
            "to" : "0x095e7baea6a6c7c4c2dfeb977efac326af552d87",
            "v" : "0x1b",
            "value" : "0x00"
        }
    }
}