{
    "TransactionWithSvalueHigh" : {
        "Byzantium" : {
        },
        "Constantinople" : {
        },
        "EIP150" : {
        },
        "EIP158" : {
        },
        "Frontier" : {
            "hash" : "c90d3b02eb65a7dd5087b0110c4ae34e9ce146402edc641d6f1d85a5c7a953f9",
            "sender" : "474869ba435affa1f45aaada48520880921c0887"
        },
        "Homestead" : {
        },
        "_info" : {
            "comment" : "",
            "filledwith" : "cpp-1.3.0+commit.fd35ad51.Darwin.appleclang",
            "lllcversion" : "Version: 0.4.20-develop.2017.12.20+commit.a4b886ad.Darwin.appleclang",
            "source" : "src/TransactionTestsFiller/ttRSValue/TransactionWithSvalueHighFiller.json",
            "sourceHash" : "78805771f9bbc93807b2a628541552d2b7bb6df00dcb18df9374f61db4c111fc"
        },
        "rlp" : "0xf85f800182520894095e7baea6a6c7c4c2dfeb977efac326af552d870b801ba048b55bfa915ac795c431978d8a6a992b628d557da5ff759b307d495a36649353a0fffffffffffffffffffffffffffffffebaaedce6af48a03bbfd25e8cd0364140",
        "transaction" : {
            "data" : "",
            "gasLimit" : "0x5208",
            "gasPrice" : "0x01",
            "nonce" : "0x00",
            "r" : "0x48b55bfa915ac795c431978d8a6a992b628d557da5ff759b307d495a36649353",
            "s" : "0xfffffffffffffffffffffffffffffffebaaedce6af48a03bbfd25e8cd0364140",
            "to" : "0x095e7baea6a6c7c4c2dfeb977efac326af552d87",
            "v" : "0x1b",
            "value" : "0x0b"
        }
    }
}