{
    "DataTestZeroBytes" : {
        "Byzantium" : {
            "hash" : "f418ca224c8fb22e767fe9814fb27c17ce9dc9eccd9d4973eb8deeb213fd7bf6",
            "sender" : "61adaba383a740078e3efbddf082be05534e5484"
        },
        "Constantinople" : {
            "hash" : "f418ca224c8fb22e767fe9814fb27c17ce9dc9eccd9d4973eb8deeb213fd7bf6",
            "sender" : "61adaba383a740078e3efbddf082be05534e5484"
        },
        "EIP150" : {
            "hash" : "f418ca224c8fb22e767fe9814fb27c17ce9dc9eccd9d4973eb8deeb213fd7bf6",
            "sender" : "61adaba383a740078e3efbddf082be05534e5484"
        },
        "EIP158" : {
            "hash" : "f418ca224c8fb22e767fe9814fb27c17ce9dc9eccd9d4973eb8deeb213fd7bf6",
            "sender" : "61adaba383a740078e3efbddf082be05534e5484"
        },
        "Frontier" : {
            "hash" : "f418ca224c8fb22e767fe9814fb27c17ce9dc9eccd9d4973eb8deeb213fd7bf6",
            "sender" : "61adaba383a740078e3efbddf082be05534e5484"
        },
        "Homestead" : {
            "hash" : "f418ca224c8fb22e767fe9814fb27c17ce9dc9eccd9d4973eb8deeb213fd7bf6",
            "sender" : "61adaba383a740078e3efbddf082be05534e5484"
        },
        "_info" : {
            "comment" : "",
            "filledwith" : "cpp-1.3.0+commit.fd35ad51.Darwin.appleclang",
            "lllcversion" : "Version: 0.4.20-develop.2017.12.20+commit.a4b886ad.Darwin.appleclang",
            "source" : "src/TransactionTestsFiller/ttData/DataTestZeroBytesFiller.json",
            "sourceHash" : "318a07b9e51f70b82d9ac53c573b583f5813a4bee71dcbbabd4658d0ddab050c"
        },
        "rlp" : "0xf87c80018261a894095e7baea6a6c7c4c2dfeb977efac326af552d870a9d00000000000000000000000000000000000000000000000000000000001ba048b55bfa915ac795c431978d8a6a992b628d557da5ff759b307d495a36649353a01fffd310ac743f371de3b9f7f9cb56c0b28ad43601b4ab949f53faa07bd2c804",
        "transaction" : {
            "data" : "0x0000000000000000000000000000000000000000000000000000000000",
            "gasLimit" : "0x61a8",
            "gasPrice" : "0x01",
            "nonce" : "0x00",
            "r" : "0x48b55bfa915ac795c431978d8a6a992b628d557da5ff759b307d495a36649353",
            "s" : "0x1fffd310ac743f371de3b9f7f9cb56c0b28ad43601b4ab949f53faa07bd2c804",
            "to" : "0x095e7baea6a6c7c4c2dfeb977efac326af552d87",
            "v" : "0x1b",
            "value" : "0x0a"
        }
    }
}