{
    "DataTestLastZeroBytes" : {
        "Byzantium" : {
            "hash" : "47a86e3d0be8ff2a9868b973ef1b30b4fd1796bb26f6c6e4f92804d6db2db977",
            "sender" : "186f6d666993362b46b3b6c626f55903a439cc8d"
        },
        "Constantinople" : {
            "hash" : "47a86e3d0be8ff2a9868b973ef1b30b4fd1796bb26f6c6e4f92804d6db2db977",
            "sender" : "186f6d666993362b46b3b6c626f55903a439cc8d"
        },
        "EIP150" : {
            "hash" : "47a86e3d0be8ff2a9868b973ef1b30b4fd1796bb26f6c6e4f92804d6db2db977",
            "sender" : "186f6d666993362b46b3b6c626f55903a439cc8d"
        },
        "EIP158" : {
            "hash" : "47a86e3d0be8ff2a9868b973ef1b30b4fd1796bb26f6c6e4f92804d6db2db977",
            "sender" : "186f6d666993362b46b3b6c626f55903a439cc8d"
        },
        "Frontier" : {
            "hash" : "47a86e3d0be8ff2a9868b973ef1b30b4fd1796bb26f6c6e4f92804d6db2db977",
            "sender" : "186f6d666993362b46b3b6c626f55903a439cc8d"
        },
        "Homestead" : {
            "hash" : "47a86e3d0be8ff2a9868b973ef1b30b4fd1796bb26f6c6e4f92804d6db2db977",
            "sender" : "186f6d666993362b46b3b6c626f55903a439cc8d"
        },
        "_info" : {
            "comment" : "",
            "filledwith" : "cpp-1.3.0+commit.fd35ad51.Darwin.appleclang",
            "lllcversion" : "Version: 0.4.20-develop.2017.12.20+commit.a4b886ad.Darwin.appleclang",
            "source" : "src/TransactionTestsFiller/ttData/DataTestLastZeroBytesFiller.json",
            "sourceHash" : "b9865599e072c0362f69b4bf5cf3ee56d21d7d6307b88115669f6912f10acbe2"
        },
        "rlp" : "0xf87c80018261a894095e7baea6a6c7c4c2dfeb977efac326af552d870a9d01000000000000000000000000000000000000000000000000000000001ba048b55bfa915ac795c431978d8a6a992b628d557da5ff759b307d495a36649353a01fffd310ac743f371de3b9f7f9cb56c0b28ad43601b4ab949f53faa07bd2c804",
        "transaction" : {
            "data" : "0x0100000000000000000000000000000000000000000000000000000000",
            "gasLimit" : "0x61a8",
            "gasPrice" : "0x01",
            "nonce" : "0x00",
            "r" : "0x48b55bfa915ac795c431978d8a6a992b628d557da5ff759b307d495a36649353",
            "s" : "0x1fffd310ac743f371de3b9f7f9cb56c0b28ad43601b4ab949f53faa07bd2c804",
            "to" : "0x095e7baea6a6c7c4c2dfeb977efac326af552d87",
            "v" : "0x1b",
            "value" : "0x0a"
        }
    }
}