{
    "TransactionWithGasLimitxPriceOverflow2" : {
        "Byzantium" : {
            "hash" : "4e46ddc4691ba9398387f494b42cae733516ff75b1f4ebb12b6c2ed01967998b",
            "sender" : "31352a0efde8bc120397e124e9f837e691b47ded"
        },
        "Constantinople" : {
            "hash" : "4e46ddc4691ba9398387f494b42cae733516ff75b1f4ebb12b6c2ed01967998b",
            "sender" : "31352a0efde8bc120397e124e9f837e691b47ded"
        },
        "EIP150" : {
            "hash" : "4e46ddc4691ba9398387f494b42cae733516ff75b1f4ebb12b6c2ed01967998b",
            "sender" : "31352a0efde8bc120397e124e9f837e691b47ded"
        },
        "EIP158" : {
            "hash" : "4e46ddc4691ba9398387f494b42cae733516ff75b1f4ebb12b6c2ed01967998b",
            "sender" : "31352a0efde8bc120397e124e9f837e691b47ded"
        },
        "Frontier" : {
            "hash" : "4e46ddc4691ba9398387f494b42cae733516ff75b1f4ebb12b6c2ed01967998b",
            "sender" : "31352a0efde8bc120397e124e9f837e691b47ded"
        },
        "Homestead" : {
            "hash" : "4e46ddc4691ba9398387f494b42cae733516ff75b1f4ebb12b6c2ed01967998b",
            "sender" : "31352a0efde8bc120397e124e9f837e691b47ded"
        },
        "_info" : {
            "comment" : "",
            "filledwith" : "cpp-1.3.0+commit.fd35ad51.Darwin.appleclang",
            "lllcversion" : "Version: 0.4.20-develop.2017.12.20+commit.a4b886ad.Darwin.appleclang",
            "source" : "src/TransactionTestsFiller/ttGasLimit/TransactionWithGasLimitxPriceOverflow2Filler.json",
            "sourceHash" : "2a6d07e6ff44cd601dd8334c8cce529f5a4e9b980f5cda7cf0fecec9dbd9676d"
        },
        "rlp" : "0xf86780873b9403b9403b5c8398968094095e7baea6a6c7c4c2dfeb977efac326af552d8780801ba048b55bfa915ac795c431978d8a6a992b628d557da5ff759b307d495a36649353a01fffd310ac743f371de3b9f7f9cb56c0b28ad43601b4ab949f53faa07bd2c804",
        "transaction" : {
            "data" : "",
            "gasLimit" : "0x989680",
            "gasPrice" : "0x3b9403b9403b5c",
            "nonce" : "0x00",
            "r" : "0x48b55bfa915ac795c431978d8a6a992b628d557da5ff759b307d495a36649353",
            "s" : "0x1fffd310ac743f371de3b9f7f9cb56c0b28ad43601b4ab949f53faa07bd2c804",
            "to" : "0x095e7baea6a6c7c4c2dfeb977efac326af552d87",
            "v" : "0x1b",
            "value" : "0x00"
        }
    }
}