{
    "TransactionWithHighGas" : {
        "Byzantium" : {
        },
        "Constantinople" : {
        },
        "EIP150" : {
        },
        "EIP158" : {
        },
        "Frontier" : {
            "hash" : "209466e8f6b969c2075bf546938265a13eee23caf7d59e4d7c4e54c26eb482ec",
            "sender" : "03a3ce84aa05891249cde4fff6c82acb009af03f"
        },
        "Homestead" : {
        },
        "_info" : {
            "comment" : "",
            "filledwith" : "cpp-1.3.0+commit.fd35ad51.Darwin.appleclang",
            "lllcversion" : "Version: 0.4.20-develop.2017.12.20+commit.a4b886ad.Darwin.appleclang",
            "source" : "src/TransactionTestsFiller/ttGasLimit/TransactionWithHighGasFiller.json",
            "sourceHash" : "ab98c88401eedc550312f384071f164f2dc421ef30e91a7459bab1546e24560a"
        },
        "rlp" : "0xf8658001887fffffffffffffff94095e7baea6a6c7c4c2dfeb977efac326af552d8780801ba048b55bfa915ac795c431978d8a6a992b628d557da5ff759b307d495a36649353a0efffd310ac743f371de3b9f7f9cb56c0b28ad43601b4ab949f53faa07bd2c804",
        "transaction" : {
            "data" : "",
            "gasLimit" : "0x7fffffffffffffff",
            "gasPrice" : "0x01",
            "nonce" : "0x00",
            "r" : "0x48b55bfa915ac795c431978d8a6a992b628d557da5ff759b307d495a36649353",
            "s" : "0xefffd310ac743f371de3b9f7f9cb56c0b28ad43601b4ab949f53faa07bd2c804",
            "to" : "0x095e7baea6a6c7c4c2dfeb977efac326af552d87",
            "v" : "0x1b",
            "value" : "0x00"
        }
    }
}