{
    "Vitalik_3" : {
        "Byzantium" : {
            "hash" : "1f621d7d8804723ab6fec606e504cc893ad4fe4a545d45f499caaf16a61d86dd",
            "sender" : "2e485e0c23b4c3c542628a5f672eeab0ad4888be"
        },
        "Constantinople" : {
            "hash" : "1f621d7d8804723ab6fec606e504cc893ad4fe4a545d45f499caaf16a61d86dd",
            "sender" : "2e485e0c23b4c3c542628a5f672eeab0ad4888be"
        },
        "EIP150" : {
        },
        "EIP158" : {
            "hash" : "1f621d7d8804723ab6fec606e504cc893ad4fe4a545d45f499caaf16a61d86dd",
            "sender" : "2e485e0c23b4c3c542628a5f672eeab0ad4888be"
        },
        "Frontier" : {
        },
        "Homestead" : {
        },
        "_info" : {
            "comment" : "",
            "filledwith" : "cpp-1.3.0+commit.fd35ad51.Darwin.appleclang",
            "lllcversion" : "Version: 0.4.20-develop.2017.12.20+commit.a4b886ad.Darwin.appleclang",
            "source" : "src/TransactionTestsFiller/ttSignature/Vitalik_3Filler.json",
            "sourceHash" : "cdefee48c89224372ec20a9c533ca17e740bbc28f86f6431285d5082244c5084"
        },
        "rlp" : "0xf864028504a817c80282f618943535353535353535353535353535353535353535088025a02d7c5bef027816a800da1736444fb58a807ef4c9603b7848673f7e3a68eb14a5a02d7c5bef027816a800da1736444fb58a807ef4c9603b7848673f7e3a68eb14a5",
        "transaction" : {
            "data" : "",
            "gasLimit" : "0xf618",
            "gasPrice" : "0x04a817c802",
            "nonce" : "0x02",
            "r" : "0x2d7c5bef027816a800da1736444fb58a807ef4c9603b7848673f7e3a68eb14a5",
            "s" : "0x2d7c5bef027816a800da1736444fb58a807ef4c9603b7848673f7e3a68eb14a5",
            "to" : "0x3535353535353535353535353535353535353535",
            "v" : "0x25",
            "value" : "0x08"
        }
    }
}