{
    "Vitalik_6" : {
        "Byzantium" : {
            "hash" : "99a214f26aaf2804d84367ac8f33ff74b3a94e68baf820668f3641819ced1216",
            "sender" : "a8f7aba377317440bc5b26198a363ad22af1f3a4"
        },
        "Constantinople" : {
            "hash" : "99a214f26aaf2804d84367ac8f33ff74b3a94e68baf820668f3641819ced1216",
            "sender" : "a8f7aba377317440bc5b26198a363ad22af1f3a4"
        },
        "EIP150" : {
        },
        "EIP158" : {
            "hash" : "99a214f26aaf2804d84367ac8f33ff74b3a94e68baf820668f3641819ced1216",
            "sender" : "a8f7aba377317440bc5b26198a363ad22af1f3a4"
        },
        "Frontier" : {
        },
        "Homestead" : {
        },
        "_info" : {
            "comment" : "",
            "filledwith" : "cpp-1.3.0+commit.fd35ad51.Darwin.appleclang",
            "lllcversion" : "Version: 0.4.20-develop.2017.12.20+commit.a4b886ad.Darwin.appleclang",
            "source" : "src/TransactionTestsFiller/ttSignature/Vitalik_6Filler.json",
            "sourceHash" : "1972dd1e1b507599bef215048dc2e5ed961eef242ec705ac8a6ebb4ef0d515f5"
        },
        "rlp" : "0xf865058504a817c8058301ec309435353535353535353535353535353535353535357d8025a04eebf77a833b30520287ddd9478ff51abbdffa30aa90a8d655dba0e8a79ce0c1a04eebf77a833b30520287ddd9478ff51abbdffa30aa90a8d655dba0e8a79ce0c1",
        "transaction" : {
            "data" : "",
            "gasLimit" : "0x01ec30",
            "gasPrice" : "0x04a817c805",
            "nonce" : "0x05",
            "r" : "0x4eebf77a833b30520287ddd9478ff51abbdffa30aa90a8d655dba0e8a79ce0c1",
            "s" : "0x4eebf77a833b30520287ddd9478ff51abbdffa30aa90a8d655dba0e8a79ce0c1",
            "to" : "0x3535353535353535353535353535353535353535",
            "v" : "0x25",
            "value" : "0x7d"
        }
    }
}